:020000040000FA
:04000000D3EF3EF00C
:107D4C0045C041F046C042F0436A446A1200B9ECA7
:107D5C003EF0000E5A6E050E596E3FEC3FF0B5EF3B
:107D6C003EF000EF00F0000E956E000E7F6E9368F3
:107D7C00000E7E6E000E926ECD80CECF45F0CFCF32
:107D8C0046F0A6EC3EF07E8EC280000EC16EC09E08
:107D9C00C70EC016F80EC0161200E80EF66E7D0E59
:107DAC00F76E000EF86E00EE01F010EE44F00900D4
:107DBC00F5CFEEFFE550E150FAE101EE00F0540E84
:107DCC00EE6AE806FDE100EE60F0540EEE6AE8069D
:107DDC00FDE1000EF86E0001ADEF3EF00804040A60
:107DEC00111F11001B0A150E040A11110E1F1F1F63
:107DFC001F1F1F0E0000150E1B0E150008041F1070
:107E0C001E101F00040A0E111F100E0008040E0194
:107E1C000F110F00040A0E010F110F0001000000DA
:107E2C0041C045F042C046F043C047F044C048F062
:107E3C006D0E496E4E0E4A6EC60E4B6E410E4C6E5A
:107E4C0073EC3FF045C041F046C042F047C043F0F0
:107E5C0048C044F0390E4126300E4222000E432217
:107E6C00000E4422FF0E4314516E7F0E4414526ECA
:107E7C001200000E5D6E000E5F6E000E5E6E63EF04
:107E8C003FF016EC3FF051C053F052C054F0000ECE
:107E9C00566E140E556EA8EC3FF016EC3FF0200E0B
:107EAC0001016819D8A45DEF3FF05FEF3FF047EF99
:107EBC003FF0020E686F5E4A5F2A59505E5C5F505D
:107ECC00800A5B6E5A50800A5B58D8A070EF3FF066
:107EDC0072EF3FF047EF3FF01200000E4D6E000EB8
:107EEC004E6E000E4F6E000E506E45A080EF3FF0B0
:107EFC0082EF3FF08AEF3FF049504D264A504E2218
:107F0C004B504F224C505022D89049364A364B3663
:107F1C004C36D8904832473246324532455046109E
:107F2C0047104810D8A49DEF3FF09FEF3FF07BEF38
:107F3C003FF04DC045F04EC046F04FC047F050C02A
:107F4C0048F01200000E586E54BEB1EF3FF0AFEF88
:107F5C003FF0B7EF3FF0536C541ED8B0542A010ECB
:107F6C00586E56BEBEEF3FF0BCEF3FF0C2EF3FF095
:107F7C00556C561ED8B0562A55505610D8B4C9EF69
:107F8C003FF0CBEF3FF0EFEF3FF0010E576ED3EF2A
:107F9C003FF0D89055365636572A56AED8EF3FF0AC
:107FAC00DAEF3FF0CFEF3FF05550535C565054583A
:107FBC00D8A0E3EF3FF0E5EF3FF0E9EF3FF055508D
:107FCC00535E5650545AD89056325532572EDAEFDB
:107FDC003FF05850D8B4F5EF3FF0F7EF3FF0FBEF20
:107FEC003FF0536C541ED8B0542A53C053F054C0B5
:047FFC0054F012002B
:020000040020DA
:08000000FFFFFFFFFFFFFFFF00
:020000040030CA
:0E000000FF081F1EFF8B81FF0FC00FE00F4097
:00000001FF
